:10000000C3C00000DCC00000DAC00000D8C000009F
:10001000D6C00000D4C00000D2C00000D0C0000094
:10002000CEC00000CCC00000CAC000007BC40000ED
:10003000C6C00000C4C00000C2C00000C0C00000B4
:10004000BEC00000BCC00000BAC00000B8C00000C4
:10005000B6C00000B4C00000B2C0000004C200007E
:10006000AEC00000ACC00000AAC00000A8C00000E4
:10007000A6C0000052056E0520066E052006A605E6
:10008000C3052006E305F5051C034B006500790058
:1000900062006F006100720064004D006F00750027
:1000A000730065000000100341006E0065006500EC
:1000B00073006800440000000403090409023B00C7
:1000C000020100C0320904000001030101000921FE
:1000D000110100012240000705810308000A0904FC
:1000E00001000103010200092111010001223E006B
:1000F0000705830308000A1201100100000008EB45
:1001000003422000000102000105010902A10109CA
:1001100001A10095037501050919012903150025A1
:100120000181029501750581017508950205010996
:100130003009311581257F8106750895010938152B
:1001400081257F8106C0C005010906A101750195C1
:1001500008050719E029E7150025018102950175B9
:100160000881039505750105081901290591029576
:10017000017503910395067508150026E70005072C
:10018000190029E78100C00011241FBECFEFD2E083
:10019000DEBFCDBF11E0A0E0B1E0E2E8F0E102C0D7
:1001A00005900D92AC31B107D9F721E0ACE1B1E097
:1001B00001C01D92A33CB207E1F76DD060C720CF0C
:1001C000E091B601F091B7018191F093B701E0930E
:1001D000B601E45BF14031F424E331E03093B70140
:1001E0002093B6012FB7F8949091B8019150909355
:1001F000B8012FBF0895AF92BF92DF92EF92FF92A6
:100200000F931F93CF93DF9384B7877F84BF0FB67D
:10021000F894A895809160008861809360001092A6
:1002200060000FBE8CECA82EB12C87E690E0F501A3
:10023000918380839AECE92EF12C26E0D22EF701EF
:10024000D08208EC10E0F8011082C9ECD0E088E11F
:100250008883539A5A9A5BD384E085BD5F9A579AF4
:100260001882F8011082F70110828FEC90E0F501FE
:1002700091838083F701D08282E0F801808388E94E
:100280008883DF91CF911F910F91FF90EF90DF90C6
:10029000BF90AF900895AFDF2FB7F89484E391E05B
:1002A0009093B5018093B4019093B7018093B60108
:1002B0002FBF78948EE091E01AD681E091E017D6B6
:1002C000C8D4F8CF089508958EE091E0EED581E08E
:1002D00091E0EBD5E2EEF0E08081846080830895C8
:1002E0008EE091E0C7D481E091E0C4C4809119010F
:1002F00090911A01009729F0019790931A01809329
:10030000190180910C0190910D01009729F001973E
:1003100090930D0180930C010895AF92BF92CF92FC
:10032000DF92EF92FF920F931F93CF93DF936C01B5
:100330007901E8019FB7F8948091B8019FBF90912F
:100340000001983051F4882341F03ADF8093000196
:100350009FB7F8948091B8019FBF909100019830A9
:1003600009F449C0923049F488E0E1E2F1E0DF01AC
:10037000982F1D929A95E9F73CC0933041F484E0A0
:10038000EDE1F1E0DF011D928A95E9F731C09111AD
:1003900016C0883080F101E211E099E2A92E91E0C7
:1003A000B92E0EDFF80181938F01AE16BF06C9F793
:1003B00080911C019091C80095FFFCCF17C091302F
:1003C000D1F48430C0F00DE111E081E2A82E81E08B
:1003D000B82EF6DED8018D938D01AA16BB06C9F79B
:1003E00080911C019091C80095FFFCCF8093CE00B6
:1003F00088E080930001BEE0CB16B1E0DB0671F42B
:10040000A1E2B1E0F7018D91819381E0A932B807B3
:10041000D1F788E090E09983888314C091E0C916F1
:1004200091E0D90679F4ADE1B1E0F7018D918193C6
:1004300081E0A132B807D1F783E090E09983888307
:1004400081E001C080E0DF91CF911F910F91FF907B
:10045000EF90DF90CF90BF90AF900895F901808129
:1004600080931C0108951F920F920FB60F921124D2
:100470002F938F939F93EF93FF938091CE009EB322
:100480009430F1F4E091B401F091B5018083E091F2
:10049000B401F091B501CF0101969093B50180931D
:1004A000B401845B914021F484E391E092838183E1
:1004B0009FB7F8948091B8018F5F8093B8019FBF78
:1004C000FF91EF919F918F912F910F900FBE0F9001
:1004D0001F901895292F332723303105C1F058F488
:1004E0002130310579F02230310591F58BE390E030
:1004F0002CEB30E039C021323105E1F022323105F8
:1005000001F126C082E190E027EF30E02DC099276D
:100510008130910549F028F00297D1F4E8E8F0E045
:1005200005C0E8EBF0E002C0E6EAF0E0849190E07C
:100530009F011AC089E090E0662379F027EE30E051
:1005400013C0662369F08EE390E029E031E00CC02F
:1005500080E090E020E030E007C02EEC30E004C006
:1005600080E490E027E431E0FA01318320830895AC
:10057000AC0128E030E080E02417350720F48F5FDD
:10058000220F331FF9CF8295807F08958093E90071
:10059000EBEEF0E0808181608083EDEEF0E0108290
:1005A0006093EC0040838091EE00881F8827881FAD
:1005B00008951092F40080E08093E9001092F0001A
:1005C0001092E8001092ED009091EB009E7F9093C6
:1005D000EB008F5F853081F708958091BB0187FF25
:1005E0000FC08091E80082FD04C08EB38111F9CF65
:1005F00010C08091E8008B770AC08EB3882349F041
:100600008091E80080FFF9CF8091E8008E77809399
:10061000E800089585E69091EC0090FF05C0909168
:10062000E80090FF05C01BC09091E80092FD17C044
:100630009EB39923B1F09EB39530A9F09091EB0051
:1006400095FD13C09091E10092FFE5CF9091E100FC
:100650009B7F9093E1008150F1F684E0089580E063
:10066000089582E0089583E0089581E00895EF926F
:10067000FF920F931F93CF93DF938C01EB017A01CD
:10068000C9DF81111DC02097D1F08091E80085FD60
:100690000EC08091E8008E778093E800E114F104A9
:1006A00079F3F7010995813059F785E009C0F80120
:1006B00080818093F10021970F5F1F4FE4CF80E08E
:1006C000DF91CF911F910F91FF90EF9008952091AE
:1006D000C1013091C2012617370748F06115710535
:1006E00039F42091E8002E772093E80001C0B90189
:1006F00030E06115710561F12091E80023FD37C0FC
:100700002091E80022FD2DC02EB3222391F12EB3BB
:10071000253089F12091E80020FFEBCF2091F200F5
:10072000FC01CF016115710549F0283038F4819141
:100730008093F100615071092F5FF3CF31E02830D1
:1007400009F030E02091E8002E772093E800D1CF27
:100750003111D2CF06C08EB3882359F08EB38530C5
:1007600051F08091E80082FFF6CF80E0089581E0AB
:10077000089582E0089583E008952091C1013091A9
:10078000C2012617370748F06115710539F4209129
:10079000E8002E772093E80001C0B90130E0611530
:1007A000710569F12091E80023FD38C02091E8002F
:1007B00022FD2EC02EB3222399F12EB3253091F1C4
:1007C0002091E80020FFEBCF2091F200FC01CF0147
:1007D0006115710551F0283040F484918093F10047
:1007E000615071092F5F3196F2CF31E0283009F066
:1007F00030E02091E8002E772093E800D0CF31112F
:10080000D1CF06C08EB3882359F08EB3853051F016
:100810008091E80082FFF6CF80E0089581E008959E
:1008200082E0089583E008956115710529F420910F
:10083000E8002B772093E8006115710511F12091F4
:10084000E80023FD24C02EB3222319F12EB3253056
:1008500011F12091E80022FFEFCF2091F200222336
:1008600031F301962091F100FC0131972083615012
:10087000710999F7DCCF8EB3882359F08EB3853098
:1008800051F08091E80080FFF6CF80E0089581E08C
:10089000089582E0089583E008953ED040D01EBAC6
:1008A0001092B90184E089BD89B5826089BD09B41F
:1008B00000FEFDCF8091D800982F9F779093D800AD
:1008C00080688093D800809163008E7F809363005E
:1008D0008091D8008F7D8093D8008091E0008E7F3A
:1008E0008093E0008091E1008E7F8093E100809111
:1008F000E20081608093E2008091E100877F809335
:10090000E1008091E20088608093E2000895C5DFF5
:1009100081E08093BA0108951092E2000895109248
:10092000E10008951F920F920FB60F9211242F939A
:100930003F934F935F936F937F938F939F93AF9367
:10094000BF93EF93FF938091E10080FF1BC08091E4
:10095000E20080FF17C08091E1008E7F8093E1006C
:100960008091E2008E7F8093E2008091E2008061BE
:100970008093E2008091D80080628093D80019BCF7
:100980001EBAA1DC8091E10084FF29C08091E200C1
:1009900084FF25C084E089BD89B5826089BD09B422
:1009A00000FEFDCF8091D8008F7D8093D80080918C
:1009B000E1008F7E8093E1008091E2008F7E809342
:1009C000E2008091E20081608093E2008091B901B1
:1009D000811102C081E001C084E08EBB73DC809194
:1009E000E10083FF22C08091E20083FF1EC080915E
:1009F000E100877F8093E10082E08EBB1092B90115
:100A00008091E1008E7F8093E1008091E2008E7FF3
:100A10008093E2008091E20080618093E200C9DD72
:100A200042E060E080E0B2DD13D18091E10082FF1E
:100A30000AC08091E20082FF06C08091E1008B7FB6
:100A40008093E10053DCFF91EF91BF91AF919F91B3
:100A50008F917F916F915F914F913F912F910F9067
:100A60000FBE0F901F9018951F93CF93DF9300D068
:100A7000CDB7DEB7EBEBF1E083EC91E02091F10034
:100A800021938E179F07D1F78091BB019091BC01F4
:100A9000492F50E04A30510508F0D2C0FA01E65C17
:100AA000FF4FCAC2803809F4BCC0823809F0C8C000
:100AB0008091BF0187708093E9008091EB001092D4
:100AC000E9009091E800977F9093E80085FB8827E4
:100AD00080F98093F1001092F10080C0282F2D7FC3
:100AE00009F0AEC0823009F09CC08091BD01811137
:100AF00027C08091BF01877009F493C08093E900FB
:100B00002091EB0020FF8DC0933021F48091EB0009
:100B1000806214C09091EB0090619093EB0021E013
:100B200030E0A90102C0440F551F8A95E2F74093B7
:100B3000EA001092EA008091EB0088608093EB005D
:100B40001092E9008091E800877F4BC0811178C046
:100B50001091BD018091E800877F8093E8003DDD22
:100B60008091E80080FD04C08EB38111F9CF59C097
:100B7000812F8F7711F492E001C093E09EBB8068D3
:100B80008093E3004EC08058823008F059C0AE0117
:100B90004F5F5F4F6091BF018091BD019091BE0199
:100BA00099DCBC01892B09F43CC09091E800977F47
:100BB0009093E80089819A81E0DD8091E8008B774D
:100BC0008093E8002EC08038D9F58091E800877FB7
:100BD0008093E8008091B9018093F1008091E80052
:100BE0008E778093E800F9DC1CC0811129C08091C8
:100BF000BD019091BE01992702979CF48091E80075
:100C0000877F8093E8008091BD018093B901E5DC86
:100C10008091B901811102C083E001C084E08EBBE4
:100C200053DB8091E80083FF0DC08091EB00806270
:100C30008093EB008091E800877F8093E80002C0FA
:100C40004FDBEFCF0F900F90DF91CF911F91089561
:100C50000895CF938EB3882359F0C091E900C770EF
:100C60001092E9008091E80083FDFEDEC093E90068
:100C7000CF9108958F929F92AF92BF92CF92DF92C1
:100C8000EF92FF920F931F93CF93DF9300D01F92A9
:100C9000CDB7DEB77C01CDB6DEB68091E80083FF2C
:100CA000EFC0F701808190E02091BF013091C00139
:100CB0002817390709F0E4C08091BC01833009F49A
:100CC00091C030F4813071F0823009F4C1C0D8C0D5
:100CD0008A3009F4A6C08B3009F491C0893009F03C
:100CE000CFC04DC08091BB01813A09F0C9C08DB61B
:100CF0009EB68091E800877F8093E8001A8219826F
:100D00008091BD011091BE018B83F7018781482F2F
:100D100050E08DB79EB7841B950B0FB6F8949EBF1D
:100D20000FBE8DBFEDB7FEB731965F0160E070E09A
:100D3000CF019ED14FEF410F8E010F5F1F4F9501E5
:100D4000BE016D5F7F4FC701E8DAF70185819681AB
:100D5000009721F0478150E0B50181D11092E90060
:100D600069817A81C501B3DC8091E8008B7780933B
:100D7000E8000FB6F8949EBE0FBE8DBE81C0809174
:100D8000BB01813209F07CC08091E800877F8093AD
:100D9000E8000091C1011091C201A090BD01B09086
:100DA000BE018DB79EB7801B910B0FB6F8949EBF06
:100DB0000FBE8DBFEDB7FEB731964F01B801CF0121
:100DC00033DD4FEF4B0D94016A2DC70147DB809156
:100DD000E8008E778093E8000FB6F894DEBE0FBE71
:100DE000CDBE4EC08091BB01813A09F049C08091CF
:100DF000E800877F8093E800F701808539C0809103
:100E0000BB018132E9F58091E800877F8093E8009B
:100E10009091BD0181E0911101C080E0F7018087D0
:100E20002EC08091BB01813259F58091E800877F07
:100E30008093E8008091BD019091BE01882736E043
:100E4000969587953A95E1F7F7019287818717C0C4
:100E50008091BB01813AA1F48091E800877F809363
:100E6000E800F701818592859695879596958795F7
:100E70008093F1008091E8008E778093E800ADDBED
:100E80000FB6F894DEBE0FBECDBE0F900F900F9040
:100E9000DF91CF911F910F91FF90EF90DF90CF9056
:100EA000BF90AF909F908F900895CF93DF93FC01F8
:100EB000DC01189685E0ED0119928A95E9F781E049
:100EC000808784EF91E0928781878281938124815A
:100ED000211102C0C0E001C0C4E0D18149DB8C2BEC
:100EE000482F426061EC8D2FDF91CF914FCB5F9205
:100EF0006F927F928F929F92AF92BF92CF92DF922A
:100F0000EF92FF920F931F93CF93DF9300D01F9226
:100F1000CDB7DEB77C01ADB6BEB68EB3843009F076
:100F200073C0F70181818093E9008091E80085FF1B
:100F30006BC08DB69EB6478150E08DB79EB7841BBF
:100F4000950B0FB6F8949EBF0FBE8DBFEDB7FEB7E1
:100F500031966F011B821A82198260E070E0CF0126
:100F600087D08E010F5F1F4F960140E0BE016D5F7D
:100F70007F4FC701D2D9582EF70181859285892BE1
:100F800029F011E083859485892B09F010E0F701A1
:100F9000658076806114710481F049815A81B301C2
:100FA000C60150D001E0892B09F400E0F701478128
:100FB00050E0B601C30153D001C000E089819A819D
:100FC000892BE9F0511004C0011102C010FF17C0B5
:100FD000F701818592859487838781818093E900D9
:100FE0008B8181118093F10069817A8140E050E02A
:100FF000C6013DDB8091E8008E778093E8000FB654
:10100000F8949EBE0FBE8DBE0FB6F894BEBE0FBE46
:10101000ADBE0F900F900F90DF91CF911F910F9168
:10102000FF90EF90DF90CF90BF90AF909F908F9008
:101030007F906F905F900895EE0FFF1F0590F491E1
:10104000E02D0994FB01DC0104C08D910190801911
:1010500021F441505040C8F7881B990B0895FB01BB
:10106000DC0102C001900D9241505040D8F7089524
:10107000DC0101C06D9341505040E0F70895F894B1
:02108000FFCFA0
:101082000801030800003101030000000000000114
:0C10920008000029010800000000000018
:00000001FF
