:1000000092C00000ABC00000A9C00000A7C0000063
:10001000A5C00000A3C00000A1C000009FC0000058
:100020009DC000009BC0000099C00000B1C300004B
:1000300095C0000093C0000091C000008FC0000078
:100040008DC000008BC0000089C0000087C0000088
:1000500085C0000083C0000081C0000047C10000CF
:100060007DC000007BC0000079C0000077C00000A8
:1000700075C000008804A4045605A4045605DC04D9
:10008000F904560519052B0512034B00650079008C
:1000900062006F0061007200640000001003410004
:1000A00072006400750069006E006F0000000403B8
:1000B000090409022200010100C032090400000104
:1000C00003010100092111010001224000070581FF
:1000D0000308000A1201100100000008EB0342208F
:1000E00000000102000105010906A1017501950842
:1000F000050719E029E7150025018102950175081A
:1001000081039505750105081901290591029501DD
:100110007503910395067508150026E70005071974
:100120000029E78100C011241FBECFEFD2E0DEBF5F
:10013000CDBF11E0A0E0B1E0EEEEFEE002C0059020
:100140000D92AE30B107D9F721E0AEE0B1E001C0C9
:100150001D92AE3AB207E1F752D0C7C651CFAF9267
:10016000BF92DF92EF92FF920F931F93CF93DF9393
:1001700084B7877F84BF0FB6F894A89580916000FC
:10018000886180936000109260000FBE8CECA82EF6
:10019000B12C87E690E0F501918380839AECE92EFB
:1001A000F12C26E0D22EF701D08208EC10E0F80105
:1001B0001082C9ECD0E088E18883539A5A9ADDD244
:1001C00084E085BD5F9A579A1882F8011082F70182
:1001D00010828FEC90E0F50191838083F701D0824B
:1001E00082E0F801808388E98883DF91CF911F91B5
:1001F0000F91FF90EF90DF90BF90AF900895AFDF29
:100200002FB7F8948FE191E09093A00180939F0124
:100210009093A2018093A1012FBF789480E091E098
:100220009CD54DD4FBCF0895089580E091E073D51F
:10023000E2EEF0E0808184608083089580E091E0C8
:100240004FC480910B0190910C01009729F0019708
:1002500090930C0180930B0108950F931F939FB708
:10026000F8948091A3019FBF883048F1AFE0B1E0DE
:100270006FE171E0E091A101F091A2019191F09301
:10028000A201E093A101EF59F14021F47093A20182
:100290006093A1014FB7F8948091A301815080939E
:1002A000A3014FBF9D93E1E0A731BE0719F78091ED
:1002B0000E019091C80095FFFCCF8093CE00AFE077
:1002C000B1E0F9018D91819381E0A731B807D1F7B1
:1002D00088E090E0F8019183808380E01F910F9186
:1002E0000895F901808180930E0108951F920F9265
:1002F0000FB60F9211242F938F939F93EF93FF9339
:100300008091CE009EB39430F1F4E0919F01F09182
:10031000A0018083E0919F01F091A001CF0101969F
:100320009093A00180939F018F59914021F48FE118
:1003300091E0928381839FB7F8948091A3018F5FAE
:100340008093A3019FBFFF91EF919F918F912F9178
:100350000F900FBE0F901F901895292F3327233031
:100360003105E1F058F42130310599F022303105A2
:1003700069F582E290E022EB30E02CC021323105B9
:1003800001F12232310511F580E490E026EE30E0F3
:1003900021C082E190E024ED30E01CC0992781303B
:1003A000910549F028F0029789F4E8E8F0E005C0EB
:1003B000EEEAF0E002C0ECE9F0E0849190E09F0109
:1003C00009C089E090E024EC30E004C080E090E0D7
:1003D00020E030E0FA01318320830895AC0128E069
:1003E00030E080E02417350720F48F5F220F331FA1
:1003F000F9CF8295807F08958093E900EBEEF0E0DD
:10040000808181608083EDEEF0E010826093EC00EB
:1004100040838091EE00881F8827881F08951092DE
:10042000F40080E08093E9001092F0001092E80060
:100430001092ED009091EB009E7F9093EB008F5F08
:10044000853081F708958091A60187FF0FC08091C4
:10045000E80082FD04C08EB38111F9CF10C08091F5
:10046000E8008B770AC08EB3882349F08091E800BA
:1004700080FFF9CF8091E8008E778093E80008959F
:1004800085E69091EC0090FF05C09091E80090FF08
:1004900005C01BC09091E80092FD17C09EB3992340
:1004A000B1F09EB39530A9F09091EB0095FD13C08B
:1004B0009091E10092FFE5CF9091E1009B7F9093B6
:1004C000E1008150F1F684E0089580E0089582E033
:1004D000089583E0089581E00895EF92FF920F93CD
:1004E0001F93CF93DF938C01EB017A01C9DF811158
:1004F0001DC02097D1F08091E80085FD0EC080914D
:10050000E8008E778093E800E114F10479F3F701B5
:100510000995813059F785E009C0F8018081809301
:10052000F10021970F5F1F4FE4CF80E0DF91CF9163
:100530001F910F91FF90EF9008952091AC013091A1
:10054000AD012617370748F06115710539F4209180
:10055000E8002E772093E80001C0B90130E0611572
:10056000710561F12091E80023FD37C02091E8007A
:1005700022FD2DC02EB3222391F12EB3253089F117
:100580002091E80020FFEBCF2091F200FC01CF0189
:100590006115710549F0283038F481918093F1009C
:1005A000615071092F5FF3CF31E0283009F030E05E
:1005B0002091E8002E772093E800D1CF3111D2CFDF
:1005C00006C08EB3882359F08EB3853051F08091E8
:1005D000E80082FFF6CF80E0089581E0089582E090
:1005E000089583E008952091AC013091AD01261764
:1005F000370748F06115710539F42091E8002E772E
:100600002093E80001C0B90130E06115710569F17E
:100610002091E80023FD38C02091E80022FD2EC083
:100620002EB3222399F12EB3253091F12091E800C9
:1006300020FFEBCF2091F200FC01CF016115710585
:1006400051F0283040F484918093F1006150710999
:100650002F5F3196F2CF31E0283009F030E0209161
:10066000E8002E772093E800D0CF3111D1CF06C01B
:100670008EB3882359F08EB3853051F08091E80015
:1006800082FFF6CF80E0089581E0089582E008952A
:1006900083E008956115710529F42091E8002B7716
:1006A0002093E8006115710511F12091E80023FD08
:1006B00024C02EB3222319F12EB3253011F120913D
:1006C000E80022FFEFCF2091F200222331F30196C0
:1006D0002091F100FC01319720836150710999F755
:1006E000DCCF8EB3882359F08EB3853051F08091E2
:1006F000E80080FFF6CF80E0089581E0089582E071
:10070000089583E008953ED040D01EBA1092A4010F
:1007100084E089BD89B5826089BD09B400FEFDCF42
:100720008091D800982F9F779093D800806880930D
:10073000D800809163008E7F809363008091D80001
:100740008F7D8093D8008091E0008E7F8093E000C1
:100750008091E1008E7F8093E1008091E2008160D2
:100760008093E2008091E100877F8093E100809197
:10077000E20088608093E2000895C5DF81E0809305
:10078000A50108951092E20008951092E1000895E5
:100790001F920F920FB60F9211242F933F934F93F6
:1007A0005F936F937F938F939F93AF93BF93EF93D9
:1007B000FF938091E10080FF1BC08091E20080FFE9
:1007C00017C08091E1008E7F8093E1008091E2006C
:1007D0008E7F8093E2008091E20080618093E2004E
:1007E0008091D80080628093D80019BC1EBA1CDDAD
:1007F0008091E10084FF29C08091E20084FF25C040
:1008000084E089BD89B5826089BD09B400FEFDCF51
:100810008091D8008F7D8093D8008091E1008F7EF9
:100820008093E1008091E2008F7E8093E2008091CE
:10083000E20081608093E2008091A401811102C0F6
:1008400081E001C084E08EBBEEDC8091E10083FF9B
:1008500022C08091E20083FF1EC08091E100877F6B
:100860008093E10082E08EBB1092A4018091E100B0
:100870008E7F8093E1008091E2008E7F8093E20082
:100880008091E20080618093E200C9DD42E060E097
:1008900080E0B2DD13D18091E10082FF0AC0809137
:1008A000E20082FF06C08091E1008B7F8093E1002F
:1008B000C8DCFF91EF91BF91AF919F918F917F9194
:1008C0006F915F914F913F912F910F900FBE0F90BD
:1008D0001F9018951F93CF93DF9300D0CDB7DEB74D
:1008E000E6EAF1E08EEA91E02091F10021938E1783
:1008F0009F07D1F78091A6019091A701492F50E061
:100900004A30510508F0D2C0FA01E65CFF4FCAC276
:10091000803809F4BCC0823809F0C8C08091AA01AF
:1009200087708093E9008091EB001092E90090912C
:10093000E800977F9093E80085FB882780F98093F3
:10094000F1001092F10080C0282F2D7F09F0AEC079
:10095000823009F09CC08091A801811127C080914C
:10096000AA01877009F493C08093E9002091EB00FD
:1009700020FF8DC0933021F48091EB00806214C081
:100980009091EB0090619093EB0021E030E0A901A1
:1009900002C0440F551F8A95E2F74093EA00109277
:1009A000EA008091EB0088608093EB001092E900F0
:1009B0008091E800877F4BC0811178C01091A80119
:1009C0008091E800877F8093E8003DDD8091E8001A
:1009D00080FD04C08EB38111F9CF59C0812F8F776C
:1009E00011F492E001C093E09EBB80688093E30025
:1009F0004EC08058823008F059C0AE014F5F5F4F43
:100A00006091AA018091A8019091A901A6DCBC0186
:100A1000892B09F43CC09091E800977F9093E800FF
:100A200089819A81E0DD8091E8008B778093E800EE
:100A30002EC08038D9F58091E800877F8093E80048
:100A40008091A4018093F1008091E8008E778093DB
:100A5000E800F9DC1CC0811129C08091A8019091A7
:100A6000A901992702979CF48091E800877F8093E1
:100A7000E8008091A8018093A401E5DC8091A401A5
:100A8000811102C083E001C084E08EBBCEDB809187
:100A9000E80083FF0DC08091EB0080628093EB0043
:100AA0008091E800877F8093E80002C0C7DBEFCF2A
:100AB0000F900F90DF91CF911F9108950895CF93DC
:100AC0008EB3882359F0C091E900C7701092E900F5
:100AD0008091E80083FDFEDEC093E900CF91089588
:100AE0008F929F92AF92BF92CF92DF92EF92FF923E
:100AF0000F931F93CF93DF9300D01F92CDB7DEB734
:100B00007C01CDB6DEB68091E80083FFEFC0F7012F
:100B1000808190E02091AA013091AB01281739071C
:100B200009F0E4C08091A701833009F491C030F44A
:100B3000813071F0823009F4C1C0D8C08A3009F424
:100B4000A6C08B3009F491C0893009F0CFC04DC0E8
:100B50008091A601813A09F0C9C08DB69EB68091F8
:100B6000E800877F8093E8001A8219828091A801AB
:100B70001091A9018B83F7018781482F50E08DB731
:100B80009EB7841B950B0FB6F8949EBF0FBE8DBF0A
:100B9000EDB7FEB731965F0160E070E0CF019ED106
:100BA0004FEF410F8E010F5F1F4F9501BE016D5F2B
:100BB0007F4FC70152DBF70185819681009721F0B5
:100BC000478150E0B50181D11092E90069817A81B5
:100BD000C501B3DC8091E8008B778093E8000FB605
:100BE000F8949EBE0FBE8DBE81C08091A601813259
:100BF00009F07CC08091E800877F8093E800009135
:100C0000AC011091AD01A090A801B090A9018DB7E1
:100C10009EB7801B910B0FB6F8949EBF0FBE8DBF81
:100C2000EDB7FEB731964F01B801CF0133DD4FEF7D
:100C30004B0D94016A2DC70154DB8091E8008E773B
:100C40008093E8000FB6F894DEBE0FBECDBE4EC056
:100C50008091A601813A09F049C08091E800877F20
:100C60008093E800F701808539C08091A601813228
:100C7000E9F58091E800877F8093E8009091A801D2
:100C800081E0911101C080E0F70180872EC0809142
:100C9000A601813259F58091E800877F8093E800B2
:100CA0008091A8019091A901882736E096958795B3
:100CB0003A95E1F7F7019287818717C08091A601E5
:100CC000813AA1F48091E800877F8093E800F701E2
:100CD0008185928596958795969587958093F10065
:100CE0008091E8008E778093E800ADDB0FB6F89432
:100CF000DEBE0FBECDBE0F900F900F90DF91CF9153
:100D00001F910F91FF90EF90DF90CF90BF90AF9029
:100D10009F908F900895CF93DF93FC01DC0118968C
:100D200085E0ED0119928A95E9F781E0808784EFEB
:100D300091E092878187828193812481211102C071
:100D4000C0E001C0C4E0D18149DB8C2B482F426058
:100D500061EC8D2FDF91CF914FCB5F926F927F929D
:100D60008F929F92AF92BF92CF92DF92EF92FF92BB
:100D70000F931F93CF93DF9300D01F92CDB7DEB7B1
:100D80007C01ADB6BEB68EB3843009F073C0F701F6
:100D900081818093E9008091E80085FF6BC08DB66A
:100DA0009EB6478150E08DB79EB7841B950B0FB65A
:100DB000F8949EBF0FBE8DBFEDB7FEB731966F01A1
:100DC0001B821A82198260E070E0CF0187D08E0109
:100DD0000F5F1F4F960140E0BE016D5F7F4FC7015F
:100DE0003CDA582EF70181859285892B29F011E094
:100DF00083859485892B09F010E0F7016580768062
:100E00006114710481F049815A81B301C60150D047
:100E100001E0892B09F400E0F701478150E0B601B9
:100E2000C30153D001C000E089819A81892BE9F088
:100E3000511004C0011102C010FF17C0F7018185D5
:100E400092859487838781818093E9008B818111CA
:100E50008093F10069817A8140E050E0C6013DDB7A
:100E60008091E8008E778093E8000FB6F8949EBEDC
:100E70000FBE8DBE0FB6F894BEBE0FBEADBE0F90B6
:100E80000F900F90DF91CF911F910F91FF90EF90F6
:100E9000DF90CF90BF90AF909F908F907F906F909A
:100EA0005F900895EE0FFF1F0590F491E02D0994D7
:100EB000FB01DC0104C08D910190801921F44150A7
:100EC0005040C8F7881B990B0895FB01DC0102C054
:100ED00001900D9241505040D8F70895DC0101C0B7
:0E0EE0006D9341505040E0F70895F894FFCF15
:0E0EEE000001080000170108000000000000CD
:00000001FF
